:100000000C942A000C9447000C9447000C94470071
:100010000C9447000C9447000C9447000C94470044
:100020000C9447000C9447000C9447000C94470034
:100030000C9447000C9447000C9447000C94470024
:100040000C9447000C9447000C9447000C94470014
:100050000C94470011241FBECFE5D8E0DEBFCDBF12
:1000600010E0A0E6B0E0E2ECF4E002C005900D92F2
:10007000AA36B107D9F710E0AAE6B0E001C01D9298
:10008000AB36B107E1F70E94CC010C945F020C94EF
:100090000000683008F070C0843008F06DC0813016
:1000A00009F1813030F08230B1F1833009F064C061
:1000B0004BC0413059F42AB381E090E002C0880F70
:1000C000991F6A95E2F7282B2ABB08952AB381E08D
:1000D00090E002C0880F991F6A95E2F7809582230D
:1000E0008ABB0895413059F427B381E090E002C003
:1000F000880F991F6A95E2F7282B27BB089527B32D
:1001000081E090E002C0880F991F6A95E2F7809520
:10011000822387BB0895413059F424B381E090E0F5
:1001200002C0880F991F6A95E2F7282B24BB089517
:1001300024B381E090E002C0880F991F6A95E2F72E
:100140008095822384BB0895413059F421B381E026
:1001500090E002C0880F991F6A95E2F7282B21BB17
:10016000089521B381E090E002C0880F991F6A953D
:10017000E2F78095822381BB0895683008F070C053
:10018000843008F06DC0813009F1813030F0823068
:10019000B1F1833009F064C04BC0442361F42BB348
:1001A00081E090E002C0880F991F6A95E2F7809580
:1001B00082238BBB08952BB381E090E002C0880FAF
:1001C000991F6A95E2F7282B2BBB0895442361F40D
:1001D00028B381E090E002C0880F991F6A95E2F78A
:1001E0008095822388BB089528B381E090E002C007
:1001F000880F991F6A95E2F7282B28BB089544239E
:1002000061F425B381E090E002C0880F991F6A95E0
:10021000E2F78095822385BB089525B381E090E0C5
:1002200002C0880F991F6A95E2F7282B25BB089515
:10023000442361F422B381E090E002C0880F991F4B
:100240006A95E2F78095822382BB089522B381E00C
:1002500090E002C0880F991F6A95E2F7282B22BB15
:1002600008956830D0F48430C0F4813049F0813092
:1002700028F0823039F0833081F406C089B305C09C
:1002800086B303C083B301C080B390E002C09595EC
:1002900087956A95E2F78170089580E0089584302B
:1002A00080F4813049F0813028F0823039F0833099
:1002B00041F406C06ABB089567BB089564BB089506
:1002C00061BB0895843080F4813049F0813028F09A
:1002D000823039F0833041F406C06BBB089568BBAF
:1002E000089565BB089562BB0895843088F4813019
:1002F00049F0813028F0823039F0833049F406C06B
:1003000089B3089586B3089583B3089580B308959B
:1003100080E00895DF92EF92FF920F931F93D82E03
:1003200082E066E041E00E94BD0082E067E040E0DC
:100330000E94BD008D2D6AE00E94530200E610E08D
:10034000F801E90FF11D80E060810E94620180EEFA
:10035000E82E8EE2F82EC7010197F1F782E067E000
:1003600041E00E94BD0082E066E040E00E94BD00E6
:100370008D2D6AE00E945302080F111D80E0F801E4
:1003800060810E946201C7010197F1F71F910F91EF
:10039000FF90EF90DF900895CF93DF9382E066E0C7
:1003A00041E00E94490082E067E041E00E9449008C
:1003B00080E06FEF0E944F0183E062E040E00E9426
:1003C000490083E063E040E00E94490083E064E08C
:1003D00040E00E94490080E00E948A01C0E9D1E02B
:1003E00083E062E00E9431018823D1F48CE291E045
:1003F000FE013197F1F70197D9F783E062E00E949F
:100400003101882369F480916A00833619F08F5F87
:1004100080936A0083E062E00E9431018823D1F377
:1004200083E063E00E9431018823E9F48CE291E0EB
:10043000FE013197F1F70197D9F783E063E00E945D
:100440003101882381F480916A00882319F4109285
:100450006A0003C0815080936A0083E063E00E94D9
:1004600031018823D1F383E064E00E9431018823C5
:10047000A9F48CE291E0FE013197F1F70197D9F7E9
:1004800083E064E00E943101882341F410926A0005
:1004900083E064E00E9431018823D1F380916A00F7
:1004A0000E948A019DCF991B79E004C0991F96177D
:1004B00008F0961B881F7A95C9F780950895F894DF
:0204C000FFCF6C
:0A04C2007E0CB69ECCDAF80EFEDECA
:00000001FF
